{
  "contractName": "NFT_Minting",
  "abi": [
    {
      "inputs": [
        {
          "internalType": "string",
          "name": "_name",
          "type": "string"
        },
        {
          "internalType": "string",
          "name": "_symbol",
          "type": "string"
        },
        {
          "internalType": "string",
          "name": "_initBaseURI",
          "type": "string"
        }
      ],
      "stateMutability": "nonpayable",
      "type": "constructor"
    },
    {
      "anonymous": false,
      "inputs": [
        {
          "indexed": true,
          "internalType": "address",
          "name": "owner",
          "type": "address"
        },
        {
          "indexed": true,
          "internalType": "address",
          "name": "approved",
          "type": "address"
        },
        {
          "indexed": true,
          "internalType": "uint256",
          "name": "tokenId",
          "type": "uint256"
        }
      ],
      "name": "Approval",
      "type": "event"
    },
    {
      "anonymous": false,
      "inputs": [
        {
          "indexed": true,
          "internalType": "address",
          "name": "owner",
          "type": "address"
        },
        {
          "indexed": true,
          "internalType": "address",
          "name": "operator",
          "type": "address"
        },
        {
          "indexed": false,
          "internalType": "bool",
          "name": "approved",
          "type": "bool"
        }
      ],
      "name": "ApprovalForAll",
      "type": "event"
    },
    {
      "anonymous": false,
      "inputs": [
        {
          "indexed": true,
          "internalType": "address",
          "name": "previousOwner",
          "type": "address"
        },
        {
          "indexed": true,
          "internalType": "address",
          "name": "newOwner",
          "type": "address"
        }
      ],
      "name": "OwnershipTransferred",
      "type": "event"
    },
    {
      "anonymous": false,
      "inputs": [
        {
          "indexed": true,
          "internalType": "address",
          "name": "from",
          "type": "address"
        },
        {
          "indexed": true,
          "internalType": "address",
          "name": "to",
          "type": "address"
        },
        {
          "indexed": true,
          "internalType": "uint256",
          "name": "tokenId",
          "type": "uint256"
        }
      ],
      "name": "Transfer",
      "type": "event"
    },
    {
      "inputs": [
        {
          "internalType": "address",
          "name": "to",
          "type": "address"
        },
        {
          "internalType": "uint256",
          "name": "tokenId",
          "type": "uint256"
        }
      ],
      "name": "approve",
      "outputs": [],
      "stateMutability": "nonpayable",
      "type": "function"
    },
    {
      "inputs": [
        {
          "internalType": "address",
          "name": "owner",
          "type": "address"
        }
      ],
      "name": "balanceOf",
      "outputs": [
        {
          "internalType": "uint256",
          "name": "",
          "type": "uint256"
        }
      ],
      "stateMutability": "view",
      "type": "function"
    },
    {
      "inputs": [],
      "name": "baseExtension",
      "outputs": [
        {
          "internalType": "string",
          "name": "",
          "type": "string"
        }
      ],
      "stateMutability": "view",
      "type": "function"
    },
    {
      "inputs": [],
      "name": "baseURI",
      "outputs": [
        {
          "internalType": "string",
          "name": "",
          "type": "string"
        }
      ],
      "stateMutability": "view",
      "type": "function"
    },
    {
      "inputs": [
        {
          "internalType": "uint256",
          "name": "",
          "type": "uint256"
        }
      ],
      "name": "blacklisted",
      "outputs": [
        {
          "internalType": "address",
          "name": "",
          "type": "address"
        }
      ],
      "stateMutability": "view",
      "type": "function"
    },
    {
      "inputs": [],
      "name": "cost",
      "outputs": [
        {
          "internalType": "uint256",
          "name": "",
          "type": "uint256"
        }
      ],
      "stateMutability": "view",
      "type": "function"
    },
    {
      "inputs": [
        {
          "internalType": "uint256",
          "name": "tokenId",
          "type": "uint256"
        }
      ],
      "name": "getApproved",
      "outputs": [
        {
          "internalType": "address",
          "name": "",
          "type": "address"
        }
      ],
      "stateMutability": "view",
      "type": "function"
    },
    {
      "inputs": [
        {
          "internalType": "address",
          "name": "owner",
          "type": "address"
        },
        {
          "internalType": "address",
          "name": "operator",
          "type": "address"
        }
      ],
      "name": "isApprovedForAll",
      "outputs": [
        {
          "internalType": "bool",
          "name": "",
          "type": "bool"
        }
      ],
      "stateMutability": "view",
      "type": "function"
    },
    {
      "inputs": [],
      "name": "isRevealed",
      "outputs": [
        {
          "internalType": "bool",
          "name": "",
          "type": "bool"
        }
      ],
      "stateMutability": "view",
      "type": "function"
    },
    {
      "inputs": [],
      "name": "maxMintAmount",
      "outputs": [
        {
          "internalType": "uint256",
          "name": "",
          "type": "uint256"
        }
      ],
      "stateMutability": "view",
      "type": "function"
    },
    {
      "inputs": [],
      "name": "maxSupply",
      "outputs": [
        {
          "internalType": "uint256",
          "name": "",
          "type": "uint256"
        }
      ],
      "stateMutability": "view",
      "type": "function"
    },
    {
      "inputs": [],
      "name": "name",
      "outputs": [
        {
          "internalType": "string",
          "name": "",
          "type": "string"
        }
      ],
      "stateMutability": "view",
      "type": "function"
    },
    {
      "inputs": [],
      "name": "owner",
      "outputs": [
        {
          "internalType": "address",
          "name": "",
          "type": "address"
        }
      ],
      "stateMutability": "view",
      "type": "function"
    },
    {
      "inputs": [
        {
          "internalType": "uint256",
          "name": "tokenId",
          "type": "uint256"
        }
      ],
      "name": "ownerOf",
      "outputs": [
        {
          "internalType": "address",
          "name": "",
          "type": "address"
        }
      ],
      "stateMutability": "view",
      "type": "function"
    },
    {
      "inputs": [],
      "name": "paused",
      "outputs": [
        {
          "internalType": "bool",
          "name": "",
          "type": "bool"
        }
      ],
      "stateMutability": "view",
      "type": "function"
    },
    {
      "inputs": [],
      "name": "presaleCost",
      "outputs": [
        {
          "internalType": "uint256",
          "name": "",
          "type": "uint256"
        }
      ],
      "stateMutability": "view",
      "type": "function"
    },
    {
      "inputs": [
        {
          "internalType": "address",
          "name": "",
          "type": "address"
        }
      ],
      "name": "presaleWallets",
      "outputs": [
        {
          "internalType": "bool",
          "name": "",
          "type": "bool"
        }
      ],
      "stateMutability": "view",
      "type": "function"
    },
    {
      "inputs": [],
      "name": "renounceOwnership",
      "outputs": [],
      "stateMutability": "nonpayable",
      "type": "function"
    },
    {
      "inputs": [
        {
          "internalType": "address",
          "name": "from",
          "type": "address"
        },
        {
          "internalType": "address",
          "name": "to",
          "type": "address"
        },
        {
          "internalType": "uint256",
          "name": "tokenId",
          "type": "uint256"
        }
      ],
      "name": "safeTransferFrom",
      "outputs": [],
      "stateMutability": "nonpayable",
      "type": "function"
    },
    {
      "inputs": [
        {
          "internalType": "address",
          "name": "from",
          "type": "address"
        },
        {
          "internalType": "address",
          "name": "to",
          "type": "address"
        },
        {
          "internalType": "uint256",
          "name": "tokenId",
          "type": "uint256"
        },
        {
          "internalType": "bytes",
          "name": "_data",
          "type": "bytes"
        }
      ],
      "name": "safeTransferFrom",
      "outputs": [],
      "stateMutability": "nonpayable",
      "type": "function"
    },
    {
      "inputs": [
        {
          "internalType": "address",
          "name": "operator",
          "type": "address"
        },
        {
          "internalType": "bool",
          "name": "approved",
          "type": "bool"
        }
      ],
      "name": "setApprovalForAll",
      "outputs": [],
      "stateMutability": "nonpayable",
      "type": "function"
    },
    {
      "inputs": [
        {
          "internalType": "bytes4",
          "name": "interfaceId",
          "type": "bytes4"
        }
      ],
      "name": "supportsInterface",
      "outputs": [
        {
          "internalType": "bool",
          "name": "",
          "type": "bool"
        }
      ],
      "stateMutability": "view",
      "type": "function"
    },
    {
      "inputs": [],
      "name": "symbol",
      "outputs": [
        {
          "internalType": "string",
          "name": "",
          "type": "string"
        }
      ],
      "stateMutability": "view",
      "type": "function"
    },
    {
      "inputs": [
        {
          "internalType": "uint256",
          "name": "index",
          "type": "uint256"
        }
      ],
      "name": "tokenByIndex",
      "outputs": [
        {
          "internalType": "uint256",
          "name": "",
          "type": "uint256"
        }
      ],
      "stateMutability": "view",
      "type": "function"
    },
    {
      "inputs": [
        {
          "internalType": "address",
          "name": "owner",
          "type": "address"
        },
        {
          "internalType": "uint256",
          "name": "index",
          "type": "uint256"
        }
      ],
      "name": "tokenOfOwnerByIndex",
      "outputs": [
        {
          "internalType": "uint256",
          "name": "",
          "type": "uint256"
        }
      ],
      "stateMutability": "view",
      "type": "function"
    },
    {
      "inputs": [],
      "name": "totalBlacklisted",
      "outputs": [
        {
          "internalType": "uint256",
          "name": "",
          "type": "uint256"
        }
      ],
      "stateMutability": "view",
      "type": "function"
    },
    {
      "inputs": [],
      "name": "totalSupply",
      "outputs": [
        {
          "internalType": "uint256",
          "name": "",
          "type": "uint256"
        }
      ],
      "stateMutability": "view",
      "type": "function"
    },
    {
      "inputs": [
        {
          "internalType": "address",
          "name": "from",
          "type": "address"
        },
        {
          "internalType": "address",
          "name": "to",
          "type": "address"
        },
        {
          "internalType": "uint256",
          "name": "tokenId",
          "type": "uint256"
        }
      ],
      "name": "transferFrom",
      "outputs": [],
      "stateMutability": "nonpayable",
      "type": "function"
    },
    {
      "inputs": [
        {
          "internalType": "address",
          "name": "newOwner",
          "type": "address"
        }
      ],
      "name": "transferOwnership",
      "outputs": [],
      "stateMutability": "nonpayable",
      "type": "function"
    },
    {
      "inputs": [
        {
          "internalType": "address",
          "name": "",
          "type": "address"
        }
      ],
      "name": "whitelisted",
      "outputs": [
        {
          "internalType": "bool",
          "name": "",
          "type": "bool"
        }
      ],
      "stateMutability": "view",
      "type": "function"
    },
    {
      "inputs": [
        {
          "internalType": "address",
          "name": "_to",
          "type": "address"
        },
        {
          "internalType": "uint256",
          "name": "_mintAmount",
          "type": "uint256"
        }
      ],
      "name": "mint",
      "outputs": [],
      "stateMutability": "payable",
      "type": "function"
    },
    {
      "inputs": [
        {
          "internalType": "address",
          "name": "_owner",
          "type": "address"
        }
      ],
      "name": "walletOfOwner",
      "outputs": [
        {
          "internalType": "uint256[]",
          "name": "",
          "type": "uint256[]"
        }
      ],
      "stateMutability": "view",
      "type": "function"
    },
    {
      "inputs": [
        {
          "internalType": "uint256",
          "name": "tokenId",
          "type": "uint256"
        }
      ],
      "name": "tokenURI",
      "outputs": [
        {
          "internalType": "string",
          "name": "",
          "type": "string"
        }
      ],
      "stateMutability": "view",
      "type": "function"
    },
    {
      "inputs": [],
      "name": "reveal_collection",
      "outputs": [],
      "stateMutability": "nonpayable",
      "type": "function"
    },
    {
      "inputs": [
        {
          "internalType": "uint256",
          "name": "_newCost",
          "type": "uint256"
        }
      ],
      "name": "setCost",
      "outputs": [],
      "stateMutability": "nonpayable",
      "type": "function"
    },
    {
      "inputs": [
        {
          "internalType": "uint256",
          "name": "_newCost",
          "type": "uint256"
        }
      ],
      "name": "setPresaleCost",
      "outputs": [],
      "stateMutability": "nonpayable",
      "type": "function"
    },
    {
      "inputs": [
        {
          "internalType": "uint256",
          "name": "_newmaxMintAmount",
          "type": "uint256"
        }
      ],
      "name": "setmaxMintAmount",
      "outputs": [],
      "stateMutability": "nonpayable",
      "type": "function"
    },
    {
      "inputs": [
        {
          "internalType": "string",
          "name": "_newBaseURI",
          "type": "string"
        }
      ],
      "name": "setBaseURI",
      "outputs": [],
      "stateMutability": "nonpayable",
      "type": "function"
    },
    {
      "inputs": [
        {
          "internalType": "string",
          "name": "_newBaseExtension",
          "type": "string"
        }
      ],
      "name": "setBaseExtension",
      "outputs": [],
      "stateMutability": "nonpayable",
      "type": "function"
    },
    {
      "inputs": [
        {
          "internalType": "bool",
          "name": "_state",
          "type": "bool"
        }
      ],
      "name": "pause",
      "outputs": [],
      "stateMutability": "nonpayable",
      "type": "function"
    },
    {
      "inputs": [
        {
          "internalType": "address",
          "name": "_user",
          "type": "address"
        }
      ],
      "name": "whitelistUser",
      "outputs": [],
      "stateMutability": "nonpayable",
      "type": "function"
    },
    {
      "inputs": [
        {
          "internalType": "address",
          "name": "_user",
          "type": "address"
        }
      ],
      "name": "removeWhitelistUser",
      "outputs": [],
      "stateMutability": "nonpayable",
      "type": "function"
    },
    {
      "inputs": [
        {
          "internalType": "address",
          "name": "_user",
          "type": "address"
        }
      ],
      "name": "addPresaleUser",
      "outputs": [],
      "stateMutability": "nonpayable",
      "type": "function"
    },
    {
      "inputs": [
        {
          "internalType": "address[]",
          "name": "_users",
          "type": "address[]"
        }
      ],
      "name": "addPresaleUsers",
      "outputs": [],
      "stateMutability": "nonpayable",
      "type": "function"
    },
    {
      "inputs": [
        {
          "internalType": "address[]",
          "name": "_users",
          "type": "address[]"
        }
      ],
      "name": "addWhitelistUsers",
      "outputs": [],
      "stateMutability": "nonpayable",
      "type": "function"
    },
    {
      "inputs": [
        {
          "internalType": "address",
          "name": "_user",
          "type": "address"
        }
      ],
      "name": "removePresaleUser",
      "outputs": [],
      "stateMutability": "nonpayable",
      "type": "function"
    },
    {
      "inputs": [],
      "name": "totalearning",
      "outputs": [
        {
          "internalType": "uint256",
          "name": "",
          "type": "uint256"
        }
      ],
      "stateMutability": "view",
      "type": "function"
    },
    {
      "inputs": [
        {
          "internalType": "address[]",
          "name": "_to",
          "type": "address[]"
        },
        {
          "internalType": "uint256[]",
          "name": "_id",
          "type": "uint256[]"
        }
      ],
      "name": "AirDrop",
      "outputs": [],
      "stateMutability": "nonpayable",
      "type": "function"
    },
    {
      "inputs": [],
      "name": "withdraw",
      "outputs": [],
      "stateMutability": "payable",
      "type": "function"
    }
  ],
  "bytecode": "0x60806040526040518060400160405280601f81526020017f697066733a2f2f67686a6b67646766686a626768747479757975747575792f00815250600b9080519060200190620000519291906200033e565b506000600c60006101000a81548160ff0219169083151502179055506040518060400160405280600581526020017f2e6a736f6e000000000000000000000000000000000000000000000000000000815250600e9080519060200190620000ba9291906200033e565b5066470de4df820000600f5567011c37937e0800006010556103c360115560056012556000601360006101000a81548160ff0219169083151502179055503480156200010557600080fd5b5060405162005e7b38038062005e7b83398181016040528101906200012b91906200058b565b82828160009080519060200190620001459291906200033e565b5080600190805190602001906200015e9291906200033e565b50505062000181620001756200019b60201b60201c565b620001a360201b60201c565b62000192816200026960201b60201c565b5050506200072b565b600033905090565b6000600a60009054906101000a900473ffffffffffffffffffffffffffffffffffffffff16905081600a60006101000a81548173ffffffffffffffffffffffffffffffffffffffff021916908373ffffffffffffffffffffffffffffffffffffffff1602179055508173ffffffffffffffffffffffffffffffffffffffff168173ffffffffffffffffffffffffffffffffffffffff167f8be0079c531659141344cd1fd0a4f28419497f9722a3daafe3b4186f6b6457e060405160405180910390a35050565b620002796200019b60201b60201c565b73ffffffffffffffffffffffffffffffffffffffff166200029f6200031460201b60201c565b73ffffffffffffffffffffffffffffffffffffffff1614620002f8576040517f08c379a0000000000000000000000000000000000000000000000000000000008152600401620002ef90620006a5565b60405180910390fd5b80600d9080519060200190620003109291906200033e565b5050565b6000600a60009054906101000a900473ffffffffffffffffffffffffffffffffffffffff16905090565b8280546200034c90620006f6565b90600052602060002090601f016020900481019282620003705760008555620003bc565b82601f106200038b57805160ff1916838001178555620003bc565b82800160010185558215620003bc579182015b82811115620003bb5782518255916020019190600101906200039e565b5b509050620003cb9190620003cf565b5090565b5b80821115620003ea576000816000905550600101620003d0565b5090565b6000604051905090565b600080fd5b600080fd5b600080fd5b600080fd5b6000601f19601f8301169050919050565b7f4e487b7100000000000000000000000000000000000000000000000000000000600052604160045260246000fd5b62000457826200040c565b810181811067ffffffffffffffff821117156200047957620004786200041d565b5b80604052505050565b60006200048e620003ee565b90506200049c82826200044c565b919050565b600067ffffffffffffffff821115620004bf57620004be6200041d565b5b620004ca826200040c565b9050602081019050919050565b60005b83811015620004f7578082015181840152602081019050620004da565b8381111562000507576000848401525b50505050565b6000620005246200051e84620004a1565b62000482565b90508281526020810184848401111562000543576200054262000407565b5b62000550848285620004d7565b509392505050565b600082601f83011262000570576200056f62000402565b5b8151620005828482602086016200050d565b91505092915050565b600080600060608486031215620005a757620005a6620003f8565b5b600084015167ffffffffffffffff811115620005c857620005c7620003fd565b5b620005d68682870162000558565b935050602084015167ffffffffffffffff811115620005fa57620005f9620003fd565b5b620006088682870162000558565b925050604084015167ffffffffffffffff8111156200062c576200062b620003fd565b5b6200063a8682870162000558565b9150509250925092565b600082825260208201905092915050565b7f4f776e61626c653a2063616c6c6572206973206e6f7420746865206f776e6572600082015250565b60006200068d60208362000644565b91506200069a8262000655565b602082019050919050565b60006020820190508181036000830152620006c0816200067e565b9050919050565b7f4e487b7100000000000000000000000000000000000000000000000000000000600052602260045260246000fd5b600060028204905060018216806200070f57607f821691505b602082108103620007255762000724620006c7565b5b50919050565b615740806200073b6000396000f3fe6080604052600436106102ae5760003560e01c806355f804b3116101755780638fdcf942116100dc578063c87b56dd11610095578063da3ef23f1161006f578063da3ef23f14610a90578063e985e9c514610ab9578063ed931e1714610af6578063f2fde38b14610b1f576102ae565b8063c87b56dd146109eb578063d5abeb0114610a28578063d936547e14610a53576102ae565b80638fdcf942146108f157806395d89b411461091a578063a22cb46514610945578063b2f3e85e1461096e578063b88d4fde14610997578063c6682862146109c0576102ae565b806370a082311161012e57806370a08231146107f5578063715018a6146108325780637f00c7a6146108495780638a93973b146108725780638ae28a401461089d5780638da5cb5b146108c6576102ae565b806355f804b3146106f95780635c975abb1461072257806360f0718e1461074d5780636352211e14610764578063686b2812146107a15780636c0360eb146107ca576102ae565b80632f745c5911610219578063438b6300116101d2578063438b6300146105d957806344a0d68a146106165780634a4c560d1461063f5780634f6ccce71461066857806351524e5b146106a557806354214f69146106ce576102ae565b80632f745c59146104e757806330b2264e1461052457806330cc7ae0146105615780633ccfd60b1461058a57806340c10f191461059457806342842e0e146105b0576102ae565b806318160ddd1161026b57806318160ddd146103d55780631b70cd3814610400578063239c70ae1461042b57806323b872dd1461045657806323db4c911461047f5780632a23d07d146104bc576102ae565b806301ffc9a7146102b357806302329a29146102f057806306fdde0314610319578063081812fc14610344578063095ea7b31461038157806313faede6146103aa575b600080fd5b3480156102bf57600080fd5b506102da60048036038101906102d59190613b73565b610b48565b6040516102e79190613bbb565b60405180910390f35b3480156102fc57600080fd5b5061031760048036038101906103129190613c02565b610bc2565b005b34801561032557600080fd5b5061032e610c5b565b60405161033b9190613cc8565b60405180910390f35b34801561035057600080fd5b5061036b60048036038101906103669190613d20565b610ced565b6040516103789190613d8e565b60405180910390f35b34801561038d57600080fd5b506103a860048036038101906103a39190613dd5565b610d72565b005b3480156103b657600080fd5b506103bf610e89565b6040516103cc9190613e24565b60405180910390f35b3480156103e157600080fd5b506103ea610e8f565b6040516103f79190613e24565b60405180910390f35b34801561040c57600080fd5b50610415610e9c565b6040516104229190613e24565b60405180910390f35b34801561043757600080fd5b50610440610f20565b60405161044d9190613e24565b60405180910390f35b34801561046257600080fd5b5061047d60048036038101906104789190613e3f565b610f26565b005b34801561048b57600080fd5b506104a660048036038101906104a19190613d20565b610f86565b6040516104b39190613d8e565b60405180910390f35b3480156104c857600080fd5b506104d1610fb9565b6040516104de9190613e24565b60405180910390f35b3480156104f357600080fd5b5061050e60048036038101906105099190613dd5565b610fbf565b60405161051b9190613e24565b60405180910390f35b34801561053057600080fd5b5061054b60048036038101906105469190613e92565b611064565b6040516105589190613bbb565b60405180910390f35b34801561056d57600080fd5b5061058860048036038101906105839190613e92565b611084565b005b61059261115b565b005b6105ae60048036038101906105a99190613dd5565b611250565b005b3480156105bc57600080fd5b506105d760048036038101906105d29190613e3f565b6115be565b005b3480156105e557600080fd5b5061060060048036038101906105fb9190613e92565b6115de565b60405161060d9190613f7d565b60405180910390f35b34801561062257600080fd5b5061063d60048036038101906106389190613d20565b61168c565b005b34801561064b57600080fd5b5061066660048036038101906106619190613e92565b611712565b005b34801561067457600080fd5b5061068f600480360381019061068a9190613d20565b6117e9565b60405161069c9190613e24565b60405180910390f35b3480156106b157600080fd5b506106cc60048036038101906106c7919061405a565b61185a565b005b3480156106da57600080fd5b506106e3611991565b6040516106f09190613bbb565b60405180910390f35b34801561070557600080fd5b50610720600480360381019061071b919061420b565b6119a4565b005b34801561072e57600080fd5b50610737611a3a565b6040516107449190613bbb565b60405180910390f35b34801561075957600080fd5b50610762611a4d565b005b34801561077057600080fd5b5061078b60048036038101906107869190613d20565b611b3c565b6040516107989190613d8e565b60405180910390f35b3480156107ad57600080fd5b506107c860048036038101906107c39190614317565b611bed565b005b3480156107d657600080fd5b506107df611d04565b6040516107ec9190613cc8565b60405180910390f35b34801561080157600080fd5b5061081c60048036038101906108179190613e92565b611d92565b6040516108299190613e24565b60405180910390f35b34801561083e57600080fd5b50610847611e49565b005b34801561085557600080fd5b50610870600480360381019061086b9190613d20565b611ed1565b005b34801561087e57600080fd5b50610887611f57565b6040516108949190613e24565b60405180910390f35b3480156108a957600080fd5b506108c460048036038101906108bf9190614317565b611f5d565b005b3480156108d257600080fd5b506108db612074565b6040516108e89190613d8e565b60405180910390f35b3480156108fd57600080fd5b5061091860048036038101906109139190613d20565b61209e565b005b34801561092657600080fd5b5061092f612124565b60405161093c9190613cc8565b60405180910390f35b34801561095157600080fd5b5061096c60048036038101906109679190614360565b6121b6565b005b34801561097a57600080fd5b5061099560048036038101906109909190613e92565b6121cc565b005b3480156109a357600080fd5b506109be60048036038101906109b99190614441565b6122a3565b005b3480156109cc57600080fd5b506109d5612305565b6040516109e29190613cc8565b60405180910390f35b3480156109f757600080fd5b50610a126004803603810190610a0d9190613d20565b612393565b604051610a1f9190613cc8565b60405180910390f35b348015610a3457600080fd5b50610a3d6124eb565b604051610a4a9190613e24565b60405180910390f35b348015610a5f57600080fd5b50610a7a6004803603810190610a759190613e92565b6124f1565b604051610a879190613bbb565b60405180910390f35b348015610a9c57600080fd5b50610ab76004803603810190610ab2919061420b565b612511565b005b348015610ac557600080fd5b50610ae06004803603810190610adb91906144c4565b6125a7565b604051610aed9190613bbb565b60405180910390f35b348015610b0257600080fd5b50610b1d6004803603810190610b189190613e92565b61263b565b005b348015610b2b57600080fd5b50610b466004803603810190610b419190613e92565b612712565b005b60007f780e9d63000000000000000000000000000000000000000000000000000000007bffffffffffffffffffffffffffffffffffffffffffffffffffffffff1916827bffffffffffffffffffffffffffffffffffffffffffffffffffffffff19161480610bbb5750610bba82612809565b5b9050919050565b610bca6128eb565b73ffffffffffffffffffffffffffffffffffffffff16610be8612074565b73ffffffffffffffffffffffffffffffffffffffff1614610c3e576040517f08c379a0000000000000000000000000000000000000000000000000000000008152600401610c3590614550565b60405180910390fd5b80601360006101000a81548160ff02191690831515021790555050565b606060008054610c6a9061459f565b80601f0160208091040260200160405190810160405280929190818152602001828054610c969061459f565b8015610ce35780601f10610cb857610100808354040283529160200191610ce3565b820191906000526020600020905b815481529060010190602001808311610cc657829003601f168201915b5050505050905090565b6000610cf8826128f3565b610d37576040517f08c379a0000000000000000000000000000000000000000000000000000000008152600401610d2e90614642565b60405180910390fd5b6004600083815260200190815260200160002060009054906101000a900473ffffffffffffffffffffffffffffffffffffffff169050919050565b6000610d7d82611b3c565b90508073ffffffffffffffffffffffffffffffffffffffff168373ffffffffffffffffffffffffffffffffffffffff1603610ded576040517f08c379a0000000000000000000000000000000000000000000000000000000008152600401610de4906146d4565b60405180910390fd5b8073ffffffffffffffffffffffffffffffffffffffff16610e0c6128eb565b73ffffffffffffffffffffffffffffffffffffffff161480610e3b5750610e3a81610e356128eb565b6125a7565b5b610e7a576040517f08c379a0000000000000000000000000000000000000000000000000000000008152600401610e7190614766565b60405180910390fd5b610e84838361295f565b505050565b600f5481565b6000600880549050905090565b6000610ea66128eb565b73ffffffffffffffffffffffffffffffffffffffff16610ec4612074565b73ffffffffffffffffffffffffffffffffffffffff1614610f1a576040517f08c379a0000000000000000000000000000000000000000000000000000000008152600401610f1190614550565b60405180910390fd5b47905090565b60125481565b610f37610f316128eb565b82612a18565b610f76576040517f08c379a0000000000000000000000000000000000000000000000000000000008152600401610f6d906147f8565b60405180910390fd5b610f81838383612af6565b505050565b60156020528060005260406000206000915054906101000a900473ffffffffffffffffffffffffffffffffffffffff1681565b60105481565b6000610fca83611d92565b821061100b576040517f08c379a00000000000000000000000000000000000000000000000000000000081526004016110029061488a565b60405180910390fd5b600660008473ffffffffffffffffffffffffffffffffffffffff1673ffffffffffffffffffffffffffffffffffffffff168152602001908152602001600020600083815260200190815260200160002054905092915050565b60176020528060005260406000206000915054906101000a900460ff1681565b61108c6128eb565b73ffffffffffffffffffffffffffffffffffffffff166110aa612074565b73ffffffffffffffffffffffffffffffffffffffff1614611100576040517f08c379a00000000000000000000000000000000000000000000000000000000081526004016110f790614550565b60405180910390fd5b6000601460008373ffffffffffffffffffffffffffffffffffffffff1673ffffffffffffffffffffffffffffffffffffffff16815260200190815260200160002060006101000a81548160ff02191690831515021790555050565b6111636128eb565b73ffffffffffffffffffffffffffffffffffffffff16611181612074565b73ffffffffffffffffffffffffffffffffffffffff16146111d7576040517f08c379a00000000000000000000000000000000000000000000000000000000081526004016111ce90614550565b60405180910390fd5b60003373ffffffffffffffffffffffffffffffffffffffff16476040516111fd906148db565b60006040518083038185875af1925050503d806000811461123a576040519150601f19603f3d011682016040523d82523d6000602084013e61123f565b606091505b505090508061124d57600080fd5b50565b600061125a610e8f565b9050601360009054906101000a900460ff16156112ac576040517f08c379a00000000000000000000000000000000000000000000000000000000081526004016112a39061493c565b60405180910390fd5b600082116112ef576040517f08c379a00000000000000000000000000000000000000000000000000000000081526004016112e6906149a8565b60405180910390fd5b601254821115611334576040517f08c379a000000000000000000000000000000000000000000000000000000000815260040161132b90614a14565b60405180910390fd5b60115482826113439190614a63565b1115611384576040517f08c379a000000000000000000000000000000000000000000000000000000000815260040161137b90614b05565b60405180910390fd5b61138c612074565b73ffffffffffffffffffffffffffffffffffffffff163373ffffffffffffffffffffffffffffffffffffffff16146115825760011515601460003373ffffffffffffffffffffffffffffffffffffffff1673ffffffffffffffffffffffffffffffffffffffff16815260200190815260200160002060009054906101000a900460ff161515146115815760011515601760003373ffffffffffffffffffffffffffffffffffffffff1673ffffffffffffffffffffffffffffffffffffffff16815260200190815260200160002060009054906101000a900460ff1615151461152f5781600f5461147c9190614b25565b3410156114be576040517f08c379a00000000000000000000000000000000000000000000000000000000081526004016114b590614bcb565b60405180910390fd5b3360156000601654815260200190815260200160002060006101000a81548173ffffffffffffffffffffffffffffffffffffffff021916908373ffffffffffffffffffffffffffffffffffffffff1602179055506016600081548092919061152590614beb565b9190505550611580565b8160105461153d9190614b25565b34101561157f576040517f08c379a000000000000000000000000000000000000000000000000000000000815260040161157690614c7f565b60405180910390fd5b5b5b5b6000600190505b8281116115b8576115a58482846115a09190614a63565b612d5c565b80806115b090614beb565b915050611589565b50505050565b6115d9838383604051806020016040528060008152506122a3565b505050565b606060006115eb83611d92565b905060008167ffffffffffffffff811115611609576116086140e0565b5b6040519080825280602002602001820160405280156116375781602001602082028036833780820191505090505b50905060005b828110156116815761164f8582610fbf565b82828151811061166257611661614c9f565b5b602002602001018181525050808061167990614beb565b91505061163d565b508092505050919050565b6116946128eb565b73ffffffffffffffffffffffffffffffffffffffff166116b2612074565b73ffffffffffffffffffffffffffffffffffffffff1614611708576040517f08c379a00000000000000000000000000000000000000000000000000000000081526004016116ff90614550565b60405180910390fd5b80600f8190555050565b61171a6128eb565b73ffffffffffffffffffffffffffffffffffffffff16611738612074565b73ffffffffffffffffffffffffffffffffffffffff161461178e576040517f08c379a000000000000000000000000000000000000000000000000000000000815260040161178590614550565b60405180910390fd5b6001601460008373ffffffffffffffffffffffffffffffffffffffff1673ffffffffffffffffffffffffffffffffffffffff16815260200190815260200160002060006101000a81548160ff02191690831515021790555050565b60006117f3610e8f565b8210611834576040517f08c379a000000000000000000000000000000000000000000000000000000000815260040161182b90614d40565b60405180910390fd5b6008828154811061184857611847614c9f565b5b90600052602060002001549050919050565b6118626128eb565b73ffffffffffffffffffffffffffffffffffffffff16611880612074565b73ffffffffffffffffffffffffffffffffffffffff16146118d6576040517f08c379a00000000000000000000000000000000000000000000000000000000081526004016118cd90614550565b60405180910390fd5b81819050848490501461191e576040517f08c379a000000000000000000000000000000000000000000000000000000000815260040161191590614dd2565b60405180910390fd5b60005b8484905081101561198a576119773386868481811061194357611942614c9f565b5b90506020020160208101906119589190613e92565b85858581811061196b5761196a614c9f565b5b905060200201356115be565b808061198290614beb565b915050611921565b5050505050565b600c60009054906101000a900460ff1681565b6119ac6128eb565b73ffffffffffffffffffffffffffffffffffffffff166119ca612074565b73ffffffffffffffffffffffffffffffffffffffff1614611a20576040517f08c379a0000000000000000000000000000000000000000000000000000000008152600401611a1790614550565b60405180910390fd5b80600d9080519060200190611a36929190613a64565b5050565b601360009054906101000a900460ff1681565b611a556128eb565b73ffffffffffffffffffffffffffffffffffffffff16611a73612074565b73ffffffffffffffffffffffffffffffffffffffff1614611ac9576040517f08c379a0000000000000000000000000000000000000000000000000000000008152600401611ac090614550565b60405180910390fd5b60011515600c60009054906101000a900460ff16151503611b1f576040517f08c379a0000000000000000000000000000000000000000000000000000000008152600401611b1690614e3e565b60405180910390fd5b6001600c60006101000a81548160ff021916908315150217905550565b6000806002600084815260200190815260200160002060009054906101000a900473ffffffffffffffffffffffffffffffffffffffff169050600073ffffffffffffffffffffffffffffffffffffffff168173ffffffffffffffffffffffffffffffffffffffff1603611be4576040517f08c379a0000000000000000000000000000000000000000000000000000000008152600401611bdb90614ed0565b60405180910390fd5b80915050919050565b611bf56128eb565b73ffffffffffffffffffffffffffffffffffffffff16611c13612074565b73ffffffffffffffffffffffffffffffffffffffff1614611c69576040517f08c379a0000000000000000000000000000000000000000000000000000000008152600401611c6090614550565b60405180910390fd5b60008151905060005b81811015611cff57600160146000858481518110611c9357611c92614c9f565b5b602002602001015173ffffffffffffffffffffffffffffffffffffffff1673ffffffffffffffffffffffffffffffffffffffff16815260200190815260200160002060006101000a81548160ff0219169083151502179055508080611cf790614beb565b915050611c72565b505050565b600d8054611d119061459f565b80601f0160208091040260200160405190810160405280929190818152602001828054611d3d9061459f565b8015611d8a5780601f10611d5f57610100808354040283529160200191611d8a565b820191906000526020600020905b815481529060010190602001808311611d6d57829003601f168201915b505050505081565b60008073ffffffffffffffffffffffffffffffffffffffff168273ffffffffffffffffffffffffffffffffffffffff1603611e02576040517f08c379a0000000000000000000000000000000000000000000000000000000008152600401611df990614f62565b60405180910390fd5b600360008373ffffffffffffffffffffffffffffffffffffffff1673ffffffffffffffffffffffffffffffffffffffff168152602001908152602001600020549050919050565b611e516128eb565b73ffffffffffffffffffffffffffffffffffffffff16611e6f612074565b73ffffffffffffffffffffffffffffffffffffffff1614611ec5576040517f08c379a0000000000000000000000000000000000000000000000000000000008152600401611ebc90614550565b60405180910390fd5b611ecf6000612d7a565b565b611ed96128eb565b73ffffffffffffffffffffffffffffffffffffffff16611ef7612074565b73ffffffffffffffffffffffffffffffffffffffff1614611f4d576040517f08c379a0000000000000000000000000000000000000000000000000000000008152600401611f4490614550565b60405180910390fd5b8060128190555050565b60165481565b611f656128eb565b73ffffffffffffffffffffffffffffffffffffffff16611f83612074565b73ffffffffffffffffffffffffffffffffffffffff1614611fd9576040517f08c379a0000000000000000000000000000000000000000000000000000000008152600401611fd090614550565b60405180910390fd5b60008151905060005b8181101561206f5760016017600085848151811061200357612002614c9f565b5b602002602001015173ffffffffffffffffffffffffffffffffffffffff1673ffffffffffffffffffffffffffffffffffffffff16815260200190815260200160002060006101000a81548160ff021916908315150217905550808061206790614beb565b915050611fe2565b505050565b6000600a60009054906101000a900473ffffffffffffffffffffffffffffffffffffffff16905090565b6120a66128eb565b73ffffffffffffffffffffffffffffffffffffffff166120c4612074565b73ffffffffffffffffffffffffffffffffffffffff161461211a576040517f08c379a000000000000000000000000000000000000000000000000000000000815260040161211190614550565b60405180910390fd5b8060108190555050565b6060600180546121339061459f565b80601f016020809104026020016040519081016040528092919081815260200182805461215f9061459f565b80156121ac5780601f10612181576101008083540402835291602001916121ac565b820191906000526020600020905b81548152906001019060200180831161218f57829003601f168201915b5050505050905090565b6121c86121c16128eb565b8383612e40565b5050565b6121d46128eb565b73ffffffffffffffffffffffffffffffffffffffff166121f2612074565b73ffffffffffffffffffffffffffffffffffffffff1614612248576040517f08c379a000000000000000000000000000000000000000000000000000000000815260040161223f90614550565b60405180910390fd5b6001601760008373ffffffffffffffffffffffffffffffffffffffff1673ffffffffffffffffffffffffffffffffffffffff16815260200190815260200160002060006101000a81548160ff02191690831515021790555050565b6122b46122ae6128eb565b83612a18565b6122f3576040517f08c379a00000000000000000000000000000000000000000000000000000000081526004016122ea906147f8565b60405180910390fd5b6122ff84848484612fac565b50505050565b600e80546123129061459f565b80601f016020809104026020016040519081016040528092919081815260200182805461233e9061459f565b801561238b5780601f106123605761010080835404028352916020019161238b565b820191906000526020600020905b81548152906001019060200180831161236e57829003601f168201915b505050505081565b606060011515600c60009054906101000a900460ff16151503612458576123b9826128f3565b6123f8576040517f08c379a00000000000000000000000000000000000000000000000000000000081526004016123ef90614ff4565b60405180910390fd5b6000612402613008565b905060008151116124225760405180602001604052806000815250612450565b8061242c8461309a565b600e604051602001612440939291906150e4565b6040516020818303038152906040525b9150506124e6565b600b80546124659061459f565b80601f01602080910402602001604051908101604052809291908181526020018280546124919061459f565b80156124de5780601f106124b3576101008083540402835291602001916124de565b820191906000526020600020905b8154815290600101906020018083116124c157829003601f168201915b505050505090505b919050565b60115481565b60146020528060005260406000206000915054906101000a900460ff1681565b6125196128eb565b73ffffffffffffffffffffffffffffffffffffffff16612537612074565b73ffffffffffffffffffffffffffffffffffffffff161461258d576040517f08c379a000000000000000000000000000000000000000000000000000000000815260040161258490614550565b60405180910390fd5b80600e90805190602001906125a3929190613a64565b5050565b6000600560008473ffffffffffffffffffffffffffffffffffffffff1673ffffffffffffffffffffffffffffffffffffffff16815260200190815260200160002060008373ffffffffffffffffffffffffffffffffffffffff1673ffffffffffffffffffffffffffffffffffffffff16815260200190815260200160002060009054906101000a900460ff16905092915050565b6126436128eb565b73ffffffffffffffffffffffffffffffffffffffff16612661612074565b73ffffffffffffffffffffffffffffffffffffffff16146126b7576040517f08c379a00000000000000000000000000000000000000000000000000000000081526004016126ae90614550565b60405180910390fd5b6000601760008373ffffffffffffffffffffffffffffffffffffffff1673ffffffffffffffffffffffffffffffffffffffff16815260200190815260200160002060006101000a81548160ff02191690831515021790555050565b61271a6128eb565b73ffffffffffffffffffffffffffffffffffffffff16612738612074565b73ffffffffffffffffffffffffffffffffffffffff161461278e576040517f08c379a000000000000000000000000000000000000000000000000000000000815260040161278590614550565b60405180910390fd5b600073ffffffffffffffffffffffffffffffffffffffff168173ffffffffffffffffffffffffffffffffffffffff16036127fd576040517f08c379a00000000000000000000000000000000000000000000000000000000081526004016127f490615187565b60405180910390fd5b61280681612d7a565b50565b60007f80ac58cd000000000000000000000000000000000000000000000000000000007bffffffffffffffffffffffffffffffffffffffffffffffffffffffff1916827bffffffffffffffffffffffffffffffffffffffffffffffffffffffff191614806128d457507f5b5e139f000000000000000000000000000000000000000000000000000000007bffffffffffffffffffffffffffffffffffffffffffffffffffffffff1916827bffffffffffffffffffffffffffffffffffffffffffffffffffffffff1916145b806128e457506128e3826131fa565b5b9050919050565b600033905090565b60008073ffffffffffffffffffffffffffffffffffffffff166002600084815260200190815260200160002060009054906101000a900473ffffffffffffffffffffffffffffffffffffffff1673ffffffffffffffffffffffffffffffffffffffff1614159050919050565b816004600083815260200190815260200160002060006101000a81548173ffffffffffffffffffffffffffffffffffffffff021916908373ffffffffffffffffffffffffffffffffffffffff160217905550808273ffffffffffffffffffffffffffffffffffffffff166129d283611b3c565b73ffffffffffffffffffffffffffffffffffffffff167f8c5be1e5ebec7d5bd14f71427d1e84f3dd0314c0f7b2291e5b200ac8c7c3b92560405160405180910390a45050565b6000612a23826128f3565b612a62576040517f08c379a0000000000000000000000000000000000000000000000000000000008152600401612a5990615219565b60405180910390fd5b6000612a6d83611b3c565b90508073ffffffffffffffffffffffffffffffffffffffff168473ffffffffffffffffffffffffffffffffffffffff161480612adc57508373ffffffffffffffffffffffffffffffffffffffff16612ac484610ced565b73ffffffffffffffffffffffffffffffffffffffff16145b80612aed5750612aec81856125a7565b5b91505092915050565b8273ffffffffffffffffffffffffffffffffffffffff16612b1682611b3c565b73ffffffffffffffffffffffffffffffffffffffff1614612b6c576040517f08c379a0000000000000000000000000000000000000000000000000000000008152600401612b63906152ab565b60405180910390fd5b600073ffffffffffffffffffffffffffffffffffffffff168273ffffffffffffffffffffffffffffffffffffffff1603612bdb576040517f08c379a0000000000000000000000000000000000000000000000000000000008152600401612bd29061533d565b60405180910390fd5b612be6838383613264565b612bf160008261295f565b6001600360008573ffffffffffffffffffffffffffffffffffffffff1673ffffffffffffffffffffffffffffffffffffffff1681526020019081526020016000206000828254612c41919061535d565b925050819055506001600360008473ffffffffffffffffffffffffffffffffffffffff1673ffffffffffffffffffffffffffffffffffffffff1681526020019081526020016000206000828254612c989190614a63565b92505081905550816002600083815260200190815260200160002060006101000a81548173ffffffffffffffffffffffffffffffffffffffff021916908373ffffffffffffffffffffffffffffffffffffffff160217905550808273ffffffffffffffffffffffffffffffffffffffff168473ffffffffffffffffffffffffffffffffffffffff167fddf252ad1be2c89b69c2b068fc378daa952ba7f163c4a11628f55a4df523b3ef60405160405180910390a4612d57838383613376565b505050565b612d7682826040518060200160405280600081525061337b565b5050565b6000600a60009054906101000a900473ffffffffffffffffffffffffffffffffffffffff16905081600a60006101000a81548173ffffffffffffffffffffffffffffffffffffffff021916908373ffffffffffffffffffffffffffffffffffffffff1602179055508173ffffffffffffffffffffffffffffffffffffffff168173ffffffffffffffffffffffffffffffffffffffff167f8be0079c531659141344cd1fd0a4f28419497f9722a3daafe3b4186f6b6457e060405160405180910390a35050565b8173ffffffffffffffffffffffffffffffffffffffff168373ffffffffffffffffffffffffffffffffffffffff1603612eae576040517f08c379a0000000000000000000000000000000000000000000000000000000008152600401612ea5906153dd565b60405180910390fd5b80600560008573ffffffffffffffffffffffffffffffffffffffff1673ffffffffffffffffffffffffffffffffffffffff16815260200190815260200160002060008473ffffffffffffffffffffffffffffffffffffffff1673ffffffffffffffffffffffffffffffffffffffff16815260200190815260200160002060006101000a81548160ff0219169083151502179055508173ffffffffffffffffffffffffffffffffffffffff168373ffffffffffffffffffffffffffffffffffffffff167f17307eab39ab6107e8899845ad3d59bd9653f200f220920489ca2b5937696c3183604051612f9f9190613bbb565b60405180910390a3505050565b612fb7848484612af6565b612fc3848484846133d6565b613002576040517f08c379a0000000000000000000000000000000000000000000000000000000008152600401612ff99061546f565b60405180910390fd5b50505050565b6060600d80546130179061459f565b80601f01602080910402602001604051908101604052809291908181526020018280546130439061459f565b80156130905780601f1061306557610100808354040283529160200191613090565b820191906000526020600020905b81548152906001019060200180831161307357829003601f168201915b5050505050905090565b6060600082036130e1576040518060400160405280600181526020017f300000000000000000000000000000000000000000000000000000000000000081525090506131f5565b600082905060005b600082146131135780806130fc90614beb565b915050600a8261310c91906154be565b91506130e9565b60008167ffffffffffffffff81111561312f5761312e6140e0565b5b6040519080825280601f01601f1916602001820160405280156131615781602001600182028036833780820191505090505b5090505b600085146131ee5760018261317a919061535d565b9150600a8561318991906154ef565b60306131959190614a63565b60f81b8183815181106131ab576131aa614c9f565b5b60200101907effffffffffffffffffffffffffffffffffffffffffffffffffffffffffffff1916908160001a905350600a856131e791906154be565b9450613165565b8093505050505b919050565b60007f01ffc9a7000000000000000000000000000000000000000000000000000000007bffffffffffffffffffffffffffffffffffffffffffffffffffffffff1916827bffffffffffffffffffffffffffffffffffffffffffffffffffffffff1916149050919050565b61326f83838361355d565b600073ffffffffffffffffffffffffffffffffffffffff168373ffffffffffffffffffffffffffffffffffffffff16036132b1576132ac81613562565b6132f0565b8173ffffffffffffffffffffffffffffffffffffffff168373ffffffffffffffffffffffffffffffffffffffff16146132ef576132ee83826135ab565b5b5b600073ffffffffffffffffffffffffffffffffffffffff168273ffffffffffffffffffffffffffffffffffffffff16036133325761332d81613718565b613371565b8273ffffffffffffffffffffffffffffffffffffffff168273ffffffffffffffffffffffffffffffffffffffff16146133705761336f82826137e9565b5b5b505050565b505050565b6133858383613868565b61339260008484846133d6565b6133d1576040517f08c379a00000000000000000000000000000000000000000000000000000000081526004016133c89061546f565b60405180910390fd5b505050565b60006133f78473ffffffffffffffffffffffffffffffffffffffff16613a41565b15613550578373ffffffffffffffffffffffffffffffffffffffff1663150b7a026134206128eb565b8786866040518563ffffffff1660e01b81526004016134429493929190615575565b6020604051808303816000875af192505050801561347e57506040513d601f19601f8201168201806040525081019061347b91906155d6565b60015b613500573d80600081146134ae576040519150601f19603f3d011682016040523d82523d6000602084013e6134b3565b606091505b5060008151036134f8576040517f08c379a00000000000000000000000000000000000000000000000000000000081526004016134ef9061546f565b60405180910390fd5b805181602001fd5b63150b7a0260e01b7bffffffffffffffffffffffffffffffffffffffffffffffffffffffff1916817bffffffffffffffffffffffffffffffffffffffffffffffffffffffff191614915050613555565b600190505b949350505050565b505050565b6008805490506009600083815260200190815260200160002081905550600881908060018154018082558091505060019003906000526020600020016000909190919091505550565b600060016135b884611d92565b6135c2919061535d565b90506000600760008481526020019081526020016000205490508181146136a7576000600660008673ffffffffffffffffffffffffffffffffffffffff1673ffffffffffffffffffffffffffffffffffffffff168152602001908152602001600020600084815260200190815260200160002054905080600660008773ffffffffffffffffffffffffffffffffffffffff1673ffffffffffffffffffffffffffffffffffffffff168152602001908152602001600020600084815260200190815260200160002081905550816007600083815260200190815260200160002081905550505b6007600084815260200190815260200160002060009055600660008573ffffffffffffffffffffffffffffffffffffffff1673ffffffffffffffffffffffffffffffffffffffff16815260200190815260200160002060008381526020019081526020016000206000905550505050565b6000600160088054905061372c919061535d565b905060006009600084815260200190815260200160002054905060006008838154811061375c5761375b614c9f565b5b90600052602060002001549050806008838154811061377e5761377d614c9f565b5b9060005260206000200181905550816009600083815260200190815260200160002081905550600960008581526020019081526020016000206000905560088054806137cd576137cc615603565b5b6001900381819060005260206000200160009055905550505050565b60006137f483611d92565b905081600660008573ffffffffffffffffffffffffffffffffffffffff1673ffffffffffffffffffffffffffffffffffffffff168152602001908152602001600020600083815260200190815260200160002081905550806007600084815260200190815260200160002081905550505050565b600073ffffffffffffffffffffffffffffffffffffffff168273ffffffffffffffffffffffffffffffffffffffff16036138d7576040517f08c379a00000000000000000000000000000000000000000000000000000000081526004016138ce9061567e565b60405180910390fd5b6138e0816128f3565b15613920576040517f08c379a0000000000000000000000000000000000000000000000000000000008152600401613917906156ea565b60405180910390fd5b61392c60008383613264565b6001600360008473ffffffffffffffffffffffffffffffffffffffff1673ffffffffffffffffffffffffffffffffffffffff168152602001908152602001600020600082825461397c9190614a63565b92505081905550816002600083815260200190815260200160002060006101000a81548173ffffffffffffffffffffffffffffffffffffffff021916908373ffffffffffffffffffffffffffffffffffffffff160217905550808273ffffffffffffffffffffffffffffffffffffffff16600073ffffffffffffffffffffffffffffffffffffffff167fddf252ad1be2c89b69c2b068fc378daa952ba7f163c4a11628f55a4df523b3ef60405160405180910390a4613a3d60008383613376565b5050565b6000808273ffffffffffffffffffffffffffffffffffffffff163b119050919050565b828054613a709061459f565b90600052602060002090601f016020900481019282613a925760008555613ad9565b82601f10613aab57805160ff1916838001178555613ad9565b82800160010185558215613ad9579182015b82811115613ad8578251825591602001919060010190613abd565b5b509050613ae69190613aea565b5090565b5b80821115613b03576000816000905550600101613aeb565b5090565b6000604051905090565b600080fd5b600080fd5b60007fffffffff0000000000000000000000000000000000000000000000000000000082169050919050565b613b5081613b1b565b8114613b5b57600080fd5b50565b600081359050613b6d81613b47565b92915050565b600060208284031215613b8957613b88613b11565b5b6000613b9784828501613b5e565b91505092915050565b60008115159050919050565b613bb581613ba0565b82525050565b6000602082019050613bd06000830184613bac565b92915050565b613bdf81613ba0565b8114613bea57600080fd5b50565b600081359050613bfc81613bd6565b92915050565b600060208284031215613c1857613c17613b11565b5b6000613c2684828501613bed565b91505092915050565b600081519050919050565b600082825260208201905092915050565b60005b83811015613c69578082015181840152602081019050613c4e565b83811115613c78576000848401525b50505050565b6000601f19601f8301169050919050565b6000613c9a82613c2f565b613ca48185613c3a565b9350613cb4818560208601613c4b565b613cbd81613c7e565b840191505092915050565b60006020820190508181036000830152613ce28184613c8f565b905092915050565b6000819050919050565b613cfd81613cea565b8114613d0857600080fd5b50565b600081359050613d1a81613cf4565b92915050565b600060208284031215613d3657613d35613b11565b5b6000613d4484828501613d0b565b91505092915050565b600073ffffffffffffffffffffffffffffffffffffffff82169050919050565b6000613d7882613d4d565b9050919050565b613d8881613d6d565b82525050565b6000602082019050613da36000830184613d7f565b92915050565b613db281613d6d565b8114613dbd57600080fd5b50565b600081359050613dcf81613da9565b92915050565b60008060408385031215613dec57613deb613b11565b5b6000613dfa85828601613dc0565b9250506020613e0b85828601613d0b565b9150509250929050565b613e1e81613cea565b82525050565b6000602082019050613e396000830184613e15565b92915050565b600080600060608486031215613e5857613e57613b11565b5b6000613e6686828701613dc0565b9350506020613e7786828701613dc0565b9250506040613e8886828701613d0b565b9150509250925092565b600060208284031215613ea857613ea7613b11565b5b6000613eb684828501613dc0565b91505092915050565b600081519050919050565b600082825260208201905092915050565b6000819050602082019050919050565b613ef481613cea565b82525050565b6000613f068383613eeb565b60208301905092915050565b6000602082019050919050565b6000613f2a82613ebf565b613f348185613eca565b9350613f3f83613edb565b8060005b83811015613f70578151613f578882613efa565b9750613f6283613f12565b925050600181019050613f43565b5085935050505092915050565b60006020820190508181036000830152613f978184613f1f565b905092915050565b600080fd5b600080fd5b600080fd5b60008083601f840112613fc457613fc3613f9f565b5b8235905067ffffffffffffffff811115613fe157613fe0613fa4565b5b602083019150836020820283011115613ffd57613ffc613fa9565b5b9250929050565b60008083601f84011261401a57614019613f9f565b5b8235905067ffffffffffffffff81111561403757614036613fa4565b5b60208301915083602082028301111561405357614052613fa9565b5b9250929050565b6000806000806040858703121561407457614073613b11565b5b600085013567ffffffffffffffff81111561409257614091613b16565b5b61409e87828801613fae565b9450945050602085013567ffffffffffffffff8111156140c1576140c0613b16565b5b6140cd87828801614004565b925092505092959194509250565b600080fd5b7f4e487b7100000000000000000000000000000000000000000000000000000000600052604160045260246000fd5b61411882613c7e565b810181811067ffffffffffffffff82111715614137576141366140e0565b5b80604052505050565b600061414a613b07565b9050614156828261410f565b919050565b600067ffffffffffffffff821115614176576141756140e0565b5b61417f82613c7e565b9050602081019050919050565b82818337600083830152505050565b60006141ae6141a98461415b565b614140565b9050828152602081018484840111156141ca576141c96140db565b5b6141d584828561418c565b509392505050565b600082601f8301126141f2576141f1613f9f565b5b813561420284826020860161419b565b91505092915050565b60006020828403121561422157614220613b11565b5b600082013567ffffffffffffffff81111561423f5761423e613b16565b5b61424b848285016141dd565b91505092915050565b600067ffffffffffffffff82111561426f5761426e6140e0565b5b602082029050602081019050919050565b600061429361428e84614254565b614140565b905080838252602082019050602084028301858111156142b6576142b5613fa9565b5b835b818110156142df57806142cb8882613dc0565b8452602084019350506020810190506142b8565b5050509392505050565b600082601f8301126142fe576142fd613f9f565b5b813561430e848260208601614280565b91505092915050565b60006020828403121561432d5761432c613b11565b5b600082013567ffffffffffffffff81111561434b5761434a613b16565b5b614357848285016142e9565b91505092915050565b6000806040838503121561437757614376613b11565b5b600061438585828601613dc0565b925050602061439685828601613bed565b9150509250929050565b600067ffffffffffffffff8211156143bb576143ba6140e0565b5b6143c482613c7e565b9050602081019050919050565b60006143e46143df846143a0565b614140565b905082815260208101848484011115614400576143ff6140db565b5b61440b84828561418c565b509392505050565b600082601f83011261442857614427613f9f565b5b81356144388482602086016143d1565b91505092915050565b6000806000806080858703121561445b5761445a613b11565b5b600061446987828801613dc0565b945050602061447a87828801613dc0565b935050604061448b87828801613d0b565b925050606085013567ffffffffffffffff8111156144ac576144ab613b16565b5b6144b887828801614413565b91505092959194509250565b600080604083850312156144db576144da613b11565b5b60006144e985828601613dc0565b92505060206144fa85828601613dc0565b9150509250929050565b7f4f776e61626c653a2063616c6c6572206973206e6f7420746865206f776e6572600082015250565b600061453a602083613c3a565b915061454582614504565b602082019050919050565b600060208201905081810360008301526145698161452d565b9050919050565b7f4e487b7100000000000000000000000000000000000000000000000000000000600052602260045260246000fd5b600060028204905060018216806145b757607f821691505b6020821081036145ca576145c9614570565b5b50919050565b7f4552433732313a20617070726f76656420717565727920666f72206e6f6e657860008201527f697374656e7420746f6b656e0000000000000000000000000000000000000000602082015250565b600061462c602c83613c3a565b9150614637826145d0565b604082019050919050565b6000602082019050818103600083015261465b8161461f565b9050919050565b7f4552433732313a20617070726f76616c20746f2063757272656e74206f776e6560008201527f7200000000000000000000000000000000000000000000000000000000000000602082015250565b60006146be602183613c3a565b91506146c982614662565b604082019050919050565b600060208201905081810360008301526146ed816146b1565b9050919050565b7f4552433732313a20617070726f76652063616c6c6572206973206e6f74206f7760008201527f6e6572206e6f7220617070726f76656420666f7220616c6c0000000000000000602082015250565b6000614750603883613c3a565b915061475b826146f4565b604082019050919050565b6000602082019050818103600083015261477f81614743565b9050919050565b7f4552433732313a207472616e736665722063616c6c6572206973206e6f74206f60008201527f776e6572206e6f7220617070726f766564000000000000000000000000000000602082015250565b60006147e2603183613c3a565b91506147ed82614786565b604082019050919050565b60006020820190508181036000830152614811816147d5565b9050919050565b7f455243373231456e756d657261626c653a206f776e657220696e646578206f7560008201527f74206f6620626f756e6473000000000000000000000000000000000000000000602082015250565b6000614874602b83613c3a565b915061487f82614818565b604082019050919050565b600060208201905081810360008301526148a381614867565b9050919050565b600081905092915050565b50565b60006148c56000836148aa565b91506148d0826148b5565b600082019050919050565b60006148e6826148b8565b9150819050919050565b7f6d696e74696e6720697320706175736564000000000000000000000000000000600082015250565b6000614926601183613c3a565b9150614931826148f0565b602082019050919050565b6000602082019050818103600083015261495581614919565b9050919050565b7f796f75206469646e27742061646420616e79206e756d62657200000000000000600082015250565b6000614992601983613c3a565b915061499d8261495c565b602082019050919050565b600060208201905081810360008301526149c181614985565b9050919050565b7f796f752063616e74206d696e74206d6f72650000000000000000000000000000600082015250565b60006149fe601283613c3a565b9150614a09826149c8565b602082019050919050565b60006020820190508181036000830152614a2d816149f1565b9050919050565b7f4e487b7100000000000000000000000000000000000000000000000000000000600052601160045260246000fd5b6000614a6e82613cea565b9150614a7983613cea565b9250827fffffffffffffffffffffffffffffffffffffffffffffffffffffffffffffffff03821115614aae57614aad614a34565b5b828201905092915050565b7f616c6c204e66747320686173206265656e20736f6c6400000000000000000000600082015250565b6000614aef601683613c3a565b9150614afa82614ab9565b602082019050919050565b60006020820190508181036000830152614b1e81614ae2565b9050919050565b6000614b3082613cea565b9150614b3b83613cea565b9250817fffffffffffffffffffffffffffffffffffffffffffffffffffffffffffffffff0483118215151615614b7457614b73614a34565b5b828202905092915050565b7f68656c6c6f350000000000000000000000000000000000000000000000000000600082015250565b6000614bb5600683613c3a565b9150614bc082614b7f565b602082019050919050565b60006020820190508181036000830152614be481614ba8565b9050919050565b6000614bf682613cea565b91507fffffffffffffffffffffffffffffffffffffffffffffffffffffffffffffffff8203614c2857614c27614a34565b5b600182019050919050565b7f68656c6c6f360000000000000000000000000000000000000000000000000000600082015250565b6000614c69600683613c3a565b9150614c7482614c33565b602082019050919050565b60006020820190508181036000830152614c9881614c5c565b9050919050565b7f4e487b7100000000000000000000000000000000000000000000000000000000600052603260045260246000fd5b7f455243373231456e756d657261626c653a20676c6f62616c20696e646578206f60008201527f7574206f6620626f756e64730000000000000000000000000000000000000000602082015250565b6000614d2a602c83613c3a565b9150614d3582614cce565b604082019050919050565b60006020820190508181036000830152614d5981614d1d565b9050919050565b7f72656365697665727320616e6420696473206861766520646966666572656e7460008201527f206c656e67746873000000000000000000000000000000000000000000000000602082015250565b6000614dbc602883613c3a565b9150614dc782614d60565b604082019050919050565b60006020820190508181036000830152614deb81614daf565b9050919050565b7f436f6c6c656374696f6e20697320616c72656164792072657665616c65640000600082015250565b6000614e28601e83613c3a565b9150614e3382614df2565b602082019050919050565b60006020820190508181036000830152614e5781614e1b565b9050919050565b7f4552433732313a206f776e657220717565727920666f72206e6f6e657869737460008201527f656e7420746f6b656e0000000000000000000000000000000000000000000000602082015250565b6000614eba602983613c3a565b9150614ec582614e5e565b604082019050919050565b60006020820190508181036000830152614ee981614ead565b9050919050565b7f4552433732313a2062616c616e636520717565727920666f7220746865207a6560008201527f726f206164647265737300000000000000000000000000000000000000000000602082015250565b6000614f4c602a83613c3a565b9150614f5782614ef0565b604082019050919050565b60006020820190508181036000830152614f7b81614f3f565b9050919050565b7f4552433732314d657461646174613a2055524920717565727920666f72206e6f60008201527f6e6578697374656e7420746f6b656e0000000000000000000000000000000000602082015250565b6000614fde602f83613c3a565b9150614fe982614f82565b604082019050919050565b6000602082019050818103600083015261500d81614fd1565b9050919050565b600081905092915050565b600061502a82613c2f565b6150348185615014565b9350615044818560208601613c4b565b80840191505092915050565b60008190508160005260206000209050919050565b600081546150728161459f565b61507c8186615014565b9450600182166000811461509757600181146150a8576150db565b60ff198316865281860193506150db565b6150b185615050565b60005b838110156150d3578154818901526001820191506020810190506150b4565b838801955050505b50505092915050565b60006150f0828661501f565b91506150fc828561501f565b91506151088284615065565b9150819050949350505050565b7f4f776e61626c653a206e6577206f776e657220697320746865207a65726f206160008201527f6464726573730000000000000000000000000000000000000000000000000000602082015250565b6000615171602683613c3a565b915061517c82615115565b604082019050919050565b600060208201905081810360008301526151a081615164565b9050919050565b7f4552433732313a206f70657261746f7220717565727920666f72206e6f6e657860008201527f697374656e7420746f6b656e0000000000000000000000000000000000000000602082015250565b6000615203602c83613c3a565b915061520e826151a7565b604082019050919050565b60006020820190508181036000830152615232816151f6565b9050919050565b7f4552433732313a207472616e736665722066726f6d20696e636f72726563742060008201527f6f776e6572000000000000000000000000000000000000000000000000000000602082015250565b6000615295602583613c3a565b91506152a082615239565b604082019050919050565b600060208201905081810360008301526152c481615288565b9050919050565b7f4552433732313a207472616e7366657220746f20746865207a65726f2061646460008201527f7265737300000000000000000000000000000000000000000000000000000000602082015250565b6000615327602483613c3a565b9150615332826152cb565b604082019050919050565b600060208201905081810360008301526153568161531a565b9050919050565b600061536882613cea565b915061537383613cea565b92508282101561538657615385614a34565b5b828203905092915050565b7f4552433732313a20617070726f766520746f2063616c6c657200000000000000600082015250565b60006153c7601983613c3a565b91506153d282615391565b602082019050919050565b600060208201905081810360008301526153f6816153ba565b9050919050565b7f4552433732313a207472616e7366657220746f206e6f6e20455243373231526560008201527f63656976657220696d706c656d656e7465720000000000000000000000000000602082015250565b6000615459603283613c3a565b9150615464826153fd565b604082019050919050565b600060208201905081810360008301526154888161544c565b9050919050565b7f4e487b7100000000000000000000000000000000000000000000000000000000600052601260045260246000fd5b60006154c982613cea565b91506154d483613cea565b9250826154e4576154e361548f565b5b828204905092915050565b60006154fa82613cea565b915061550583613cea565b9250826155155761551461548f565b5b828206905092915050565b600081519050919050565b600082825260208201905092915050565b600061554782615520565b615551818561552b565b9350615561818560208601613c4b565b61556a81613c7e565b840191505092915050565b600060808201905061558a6000830187613d7f565b6155976020830186613d7f565b6155a46040830185613e15565b81810360608301526155b6818461553c565b905095945050505050565b6000815190506155d081613b47565b92915050565b6000602082840312156155ec576155eb613b11565b5b60006155fa848285016155c1565b91505092915050565b7f4e487b7100000000000000000000000000000000000000000000000000000000600052603160045260246000fd5b7f4552433732313a206d696e7420746f20746865207a65726f2061646472657373600082015250565b6000615668602083613c3a565b915061567382615632565b602082019050919050565b600060208201905081810360008301526156978161565b565b9050919050565b7f4552433732313a20746f6b656e20616c7265616479206d696e74656400000000600082015250565b60006156d4601c83613c3a565b91506156df8261569e565b602082019050919050565b60006020820190508181036000830152615703816156c7565b905091905056fea2646970667358221220b6e845c091321b629693f7eceeb8fbed3b5d8c0c0be9a3c8dc938dbd4f8235ff64736f6c634300080d0033",
  "immutableReferences": {},
  "source": "//SPDX-License-Identifier: MIT\n\npragma solidity ^0.8.7;\n\nimport \"@openzeppelin/contracts/token/ERC721/extensions/ERC721Enumerable.sol\";\nimport \"@openzeppelin/contracts/access/Ownable.sol\";\ninterface Tokend{\n     function tokenURI(uint256 tokenId) external returns (string memory);\n}\n\ncontract NFT_Minting is ERC721Enumerable, Ownable {\n    using Strings for uint256;\n    string private unRevealedURL=\"ipfs://ghjkgdgfhjbghttyuyutuuy/\";\n    bool public isRevealed=false; //private\n\n \n    string public baseURI; //private\n    string public baseExtension = \".json\";\n    uint256 public cost = 0.02 ether;\n    uint256 public presaleCost = 0.08 ether;\n    uint256 public maxSupply = 963;\n    uint256 public maxMintAmount = 5;\n    bool public paused = false;\n    mapping(address => bool) public whitelisted;\n    mapping(uint => address) public blacklisted;\n    uint public totalBlacklisted;\n    mapping(address => bool) public presaleWallets;\n\n    constructor(\n        string memory _name,\n        string memory _symbol,\n        string memory _initBaseURI\n    ) ERC721(_name, _symbol) {\n\n\n        setBaseURI(_initBaseURI);\n       // mint(msg.sender, 20);\n    }\n\n    // internal\n    function _baseURI() internal view virtual override returns (string memory) {\n        return baseURI;\n    }\n\n    // public\n    function mint(address _to, uint256 _mintAmount) public payable {\n\n        uint256 supply = totalSupply();\n        require(!paused,\"minting is paused\");\n        require(_mintAmount > 0,\"you didn't add any number\");\n        require(_mintAmount <= maxMintAmount,\"you cant mint more\");\n        require(supply + _mintAmount <= maxSupply,\"all Nfts has been sold\");\n\n        if (msg.sender != owner()) {\n            if (whitelisted[msg.sender] != true) {\n                if (presaleWallets[msg.sender] != true) {\n                    //general public\n                    require(msg.value >= cost * _mintAmount,\"hello5\");\n                    blacklisted[totalBlacklisted]=msg.sender;\n                    totalBlacklisted++;\n                } else {\n                    //presale\n                    require(msg.value >= presaleCost * _mintAmount,\"hello6\");\n                    \n                }\n            }\n        }\n\n        for (uint256 i = 1; i <= _mintAmount; i++) {\n            _safeMint(_to, supply + i);\n        }\n    }\n\n    function walletOfOwner(address _owner)\n        public\n        view\n        returns (uint256[] memory)\n    {\n        uint256 ownerTokenCount = balanceOf(_owner);\n        uint256[] memory tokenIds = new uint256[](ownerTokenCount);\n        for (uint256 i; i < ownerTokenCount; i++) {\n            tokenIds[i] = tokenOfOwnerByIndex(_owner, i);\n        }\n        return tokenIds;\n    }\n\n       function tokenURI(uint256 tokenId)\n        public\n        view\n        virtual\n        override\n        returns (string memory)\n    {\n        if(isRevealed==true)\n        {\n            require(\n            _exists(tokenId),\n            \"ERC721Metadata: URI query for nonexistent token\"\n        );\n\n        string memory currentBaseURI = _baseURI();\n        return\n            bytes(currentBaseURI).length > 0\n                ? string(\n                    abi.encodePacked(\n                        currentBaseURI,\n                        tokenId.toString(),\n                        baseExtension\n                    )\n                )\n                : \"\";\n        }\n        else{\n            return unRevealedURL;\n        }\n\n    }\n\n    function reveal_collection()public onlyOwner{\n        require(isRevealed!=true,\"Collection is already revealed\");\n        isRevealed = true;\n    } \n\n    //only owner\n    function setCost(uint256 _newCost) public onlyOwner {\n        cost = _newCost;\n    }\n\n    function setPresaleCost(uint256 _newCost) public onlyOwner {\n        presaleCost = _newCost;\n    }\n\n    function setmaxMintAmount(uint256 _newmaxMintAmount) public onlyOwner {\n        maxMintAmount = _newmaxMintAmount;\n    }\n\n    function setBaseURI(string memory _newBaseURI) public onlyOwner {\n        baseURI = _newBaseURI;\n    }\n\n    function setBaseExtension(string memory _newBaseExtension)\n        public\n        onlyOwner\n    {\n        baseExtension = _newBaseExtension;\n    }\n\n    function pause(bool _state) public onlyOwner {\n        paused = _state;\n    }\n\n    function whitelistUser(address _user) public onlyOwner {\n        whitelisted[_user] = true;\n    }\n\n    function removeWhitelistUser(address _user) public onlyOwner {\n        whitelisted[_user] = false;\n    }\n\n    function addPresaleUser(address _user) public onlyOwner {\n        presaleWallets[_user] = true;\n    }\n\n    function addPresaleUsers(address[] memory _users) public onlyOwner {\n        uint total_users = _users.length;\n        for (uint256 i = 0; i < total_users; i++) {\n            presaleWallets[_users[i]] = true;\n        }\n    }\n\n    function addWhitelistUsers(address[] memory _users) public onlyOwner {\n        uint total_users = _users.length;\n        for (uint256 i = 0; i < total_users; i++) {\n            whitelisted[_users[i]] = true;\n        }\n    }\n\n    function removePresaleUser(address _user) public onlyOwner {\n        presaleWallets[_user] = false;\n    }\n    function totalearning() public view onlyOwner returns(uint)\n    {\n        return address(this).balance;\n    }\n\n    function AirDrop(address[] calldata _to,uint256[] calldata _id) external onlyOwner{\n        require(_to.length == _id.length,\"receivers and ids have different lengths\");\n        for(uint i=0;i<_to.length;i++)\n        {\n            safeTransferFrom(msg.sender,_to[i],_id[i]);\n        }\n    }\n     \n     function withdraw() public payable onlyOwner {\n        (bool success, ) = payable(msg.sender).call{\n            value: address(this).balance\n        }(\"\");\n        require(success);\n    }\n\n}\n \n\n\n\n",
  "sourcePath": "/Users/ahmadsaeed/Desktop/desktop data/final/Web/Frontend/contracts/Minting_contract.sol",
  "compiler": {
    "name": "solc",
    "version": "0.8.13+commit.abaa5c0e.Emscripten.clang"
  },
  "schemaVersion": "3.4.4",
  "updatedAt": "2022-03-25T22:12:17.204Z",
  "devdoc": {
    "kind": "dev",
    "methods": {
      "approve(address,uint256)": {
        "details": "See {IERC721-approve}."
      },
      "balanceOf(address)": {
        "details": "See {IERC721-balanceOf}."
      },
      "getApproved(uint256)": {
        "details": "See {IERC721-getApproved}."
      },
      "isApprovedForAll(address,address)": {
        "details": "See {IERC721-isApprovedForAll}."
      },
      "name()": {
        "details": "See {IERC721Metadata-name}."
      },
      "owner()": {
        "details": "Returns the address of the current owner."
      },
      "ownerOf(uint256)": {
        "details": "See {IERC721-ownerOf}."
      },
      "renounceOwnership()": {
        "details": "Leaves the contract without owner. It will not be possible to call `onlyOwner` functions anymore. Can only be called by the current owner. NOTE: Renouncing ownership will leave the contract without an owner, thereby removing any functionality that is only available to the owner."
      },
      "safeTransferFrom(address,address,uint256)": {
        "details": "See {IERC721-safeTransferFrom}."
      },
      "safeTransferFrom(address,address,uint256,bytes)": {
        "details": "See {IERC721-safeTransferFrom}."
      },
      "setApprovalForAll(address,bool)": {
        "details": "See {IERC721-setApprovalForAll}."
      },
      "supportsInterface(bytes4)": {
        "details": "See {IERC165-supportsInterface}."
      },
      "symbol()": {
        "details": "See {IERC721Metadata-symbol}."
      },
      "tokenByIndex(uint256)": {
        "details": "See {IERC721Enumerable-tokenByIndex}."
      },
      "tokenOfOwnerByIndex(address,uint256)": {
        "details": "See {IERC721Enumerable-tokenOfOwnerByIndex}."
      },
      "tokenURI(uint256)": {
        "details": "See {IERC721Metadata-tokenURI}."
      },
      "totalSupply()": {
        "details": "See {IERC721Enumerable-totalSupply}."
      },
      "transferFrom(address,address,uint256)": {
        "details": "See {IERC721-transferFrom}."
      },
      "transferOwnership(address)": {
        "details": "Transfers ownership of the contract to a new account (`newOwner`). Can only be called by the current owner."
      }
    },
    "version": 1
  },
  "userdoc": {
    "kind": "user",
    "methods": {},
    "version": 1
  }
}